{
    "contractName": "Admin",
    "abi": [
        {
            "inputs": [
                {
                    "internalType": "address",
                    "name": "_firstAdmin",
                    "type": "address"
                }
            ],
            "stateMutability": "nonpayable",
            "type": "constructor"
        },
        {
            "inputs": [
                {
                    "internalType": "address",
                    "name": "_newAdmin",
                    "type": "address"
                }
            ],
            "name": "addAdmin",
            "outputs": [],
            "stateMutability": "nonpayable",
            "type": "function"
        },
        {
            "inputs": [
                {
                    "internalType": "address",
                    "name": "_criminal",
                    "type": "address"
                }
            ],
            "name": "addToBlacklist",
            "outputs": [],
            "stateMutability": "nonpayable",
            "type": "function"
        },
        {
            "inputs": [
                {
                    "internalType": "address",
                    "name": "_address",
                    "type": "address"
                }
            ],
            "name": "addressToStudentId",
            "outputs": [
                {
                    "internalType": "bytes32",
                    "name": "studentId",
                    "type": "bytes32"
                }
            ],
            "stateMutability": "nonpayable",
            "type": "function"
        },
        {
            "inputs": [],
            "name": "adminCount",
            "outputs": [
                {
                    "internalType": "uint256",
                    "name": "",
                    "type": "uint256"
                }
            ],
            "stateMutability": "view",
            "type": "function"
        },
        {
            "inputs": [],
            "name": "getAdminCount",
            "outputs": [
                {
                    "internalType": "uint256",
                    "name": "",
                    "type": "uint256"
                }
            ],
            "stateMutability": "view",
            "type": "function"
        },
        {
            "inputs": [
                {
                    "internalType": "address",
                    "name": "_address",
                    "type": "address"
                }
            ],
            "name": "isAdmin",
            "outputs": [
                {
                    "internalType": "bool",
                    "name": "",
                    "type": "bool"
                }
            ],
            "stateMutability": "view",
            "type": "function"
        },
        {
            "inputs": [
                {
                    "internalType": "address",
                    "name": "_person",
                    "type": "address"
                }
            ],
            "name": "isBlacklisted",
            "outputs": [
                {
                    "internalType": "bool",
                    "name": "",
                    "type": "bool"
                }
            ],
            "stateMutability": "view",
            "type": "function"
        },
        {
            "inputs": [
                {
                    "internalType": "bytes32",
                    "name": "_studentId",
                    "type": "bytes32"
                }
            ],
            "name": "pairStudentIdAddress",
            "outputs": [],
            "stateMutability": "nonpayable",
            "type": "function"
        },
        {
            "inputs": [
                {
                    "internalType": "address",
                    "name": "_badAdmin",
                    "type": "address"
                }
            ],
            "name": "removeAdmin",
            "outputs": [],
            "stateMutability": "nonpayable",
            "type": "function"
        },
        {
            "inputs": [
                {
                    "internalType": "address",
                    "name": "_parolee",
                    "type": "address"
                }
            ],
            "name": "removeFromBlacklist",
            "outputs": [],
            "stateMutability": "nonpayable",
            "type": "function"
        },
        {
            "inputs": [
                {
                    "internalType": "bytes32",
                    "name": "_studentId",
                    "type": "bytes32"
                }
            ],
            "name": "studentIdToAddress",
            "outputs": [
                {
                    "internalType": "address[]",
                    "name": "",
                    "type": "address[]"
                }
            ],
            "stateMutability": "nonpayable",
            "type": "function"
        }
    ],
    "bytecode": "608060405234801561001057600080fd5b506040516105ef3803806105ef83398101604081905261002f916100bc565b6001600160a01b0381166000908152600160208190526040808320805460ff19908116841790915583546001600160a01b0319163390811785558452908320805490911690911790556002805491610086836100ec565b90915550506000546001600160a01b038281169116146100b657600280549060006100b0836100ec565b91905055505b50610115565b6000602082840312156100ce57600080fd5b81516001600160a01b03811681146100e557600080fd5b9392505050565b600060001982141561010e57634e487b7160e01b600052601160045260246000fd5b5060010190565b6104cb806101246000396000f3fe608060405234801561001057600080fd5b50600436106100a95760003560e01c806346a9da791161007157806346a9da7914610166578063537df3b614610186578063704802751461019957806386c34415146101ac5780638b7bf3eb146101d5578063fe575a87146101dd57600080fd5b80631785f53c146100ae57806324d7806c146100c35780632b7832b3146100eb5780632d6915a11461010257806344337ea114610153575b600080fd5b6100c16100bc3660046103b7565b610209565b005b6100d66100d13660046103b7565b61026c565b60405190151581526020015b60405180910390f35b6100f460025481565b6040519081526020016100e2565b6100c16101103660046103e7565b32600081815260056020908152604080832085905593825260048152928120805460018101825590825292902090910180546001600160a01b0319169091179055565b6100c16101613660046103b7565b61028a565b6101796101743660046103e7565b6102d3565b6040516100e29190610400565b6100c16101943660046103b7565b61033f565b6100c16101a73660046103b7565b610372565b6100f46101ba3660046103b7565b6001600160a01b031660009081526005602052604090205490565b6002546100f4565b6100d66101eb3660046103b7565b6001600160a01b031660009081526003602052604090205460ff1690565b6102123261026c565b61021b57600080fd5b6000546001600160a01b038281169116141561023657600080fd5b6001600160a01b0381166000908152600160205260408120805460ff1916905560028054916102648361044d565b919050555050565b6001600160a01b031660009081526001602052604090205460ff1690565b6102933261026c565b61029c57600080fd5b6102a58161026c565b156102af57600080fd5b6001600160a01b03166000908152600360205260409020805460ff19166001179055565b60008181526004602090815260409182902080548351818402810184019094528084526060939283018282801561033357602002820191906000526020600020905b81546001600160a01b03168152600190910190602001808311610315575b50505050509050919050565b6103483261026c565b61035157600080fd5b6001600160a01b03166000908152600360205260409020805460ff19169055565b61037b3261026c565b61038457600080fd5b6001600160a01b03811660009081526001602081905260408220805460ff19169091179055600280549161026483610464565b6000602082840312156103c957600080fd5b81356001600160a01b03811681146103e057600080fd5b9392505050565b6000602082840312156103f957600080fd5b5035919050565b6020808252825182820181905260009190848201906040850190845b818110156104415783516001600160a01b03168352928401929184019160010161041c565b50909695505050505050565b60008161045c5761045c61047f565b506000190190565b60006000198214156104785761047861047f565b5060010190565b634e487b7160e01b600052601160045260246000fdfea264697066735822122018682cd70585792275392b2a6c79521b4dd9ce456c72722a5baedc6e5cab065d64736f6c63430008060033",
    "sourcePath": "c:/Users/14082/Documents/iBlock/Code/iBlock/Admin.sol",
    "compiler": {
        "name": "solc",
        "version": "0.8.6+commit.11564f7e"
    },
    "functionHashes": {
        "addAdmin(address)": "70480275",
        "addToBlacklist(address)": "44337ea1",
        "addressToStudentId(address)": "86c34415",
        "adminCount()": "2b7832b3",
        "getAdminCount()": "8b7bf3eb",
        "isAdmin(address)": "24d7806c",
        "isBlacklisted(address)": "fe575a87",
        "pairStudentIdAddress(bytes32)": "2d6915a1",
        "removeAdmin(address)": "1785f53c",
        "removeFromBlacklist(address)": "537df3b6",
        "studentIdToAddress(bytes32)": "46a9da79"
    },
    "gasEstimates": {
        "creation": {
            "codeDepositCost": "245400",
            "executionCost": "infinite",
            "totalCost": "infinite"
        },
        "external": {
            "addAdmin(address)": "51158",
            "addToBlacklist(address)": "infinite",
            "addressToStudentId(address)": "2568",
            "adminCount()": "2340",
            "getAdminCount()": "2380",
            "isAdmin(address)": "2538",
            "isBlacklisted(address)": "2613",
            "pairStudentIdAddress(bytes32)": "71039",
            "removeAdmin(address)": "53244",
            "removeFromBlacklist(address)": "26827",
            "studentIdToAddress(bytes32)": "infinite"
        }
    }
}