{
    "contractName": "Marketplace",
    "abi": [
        {
            "inputs": [
                {
                    "internalType": "address",
                    "name": "_buyer",
                    "type": "address"
                },
                {
                    "internalType": "uint256",
                    "name": "_total_cost",
                    "type": "uint256"
                }
            ],
            "name": "canAfford",
            "outputs": [
                {
                    "internalType": "bool",
                    "name": "",
                    "type": "bool"
                }
            ],
            "stateMutability": "nonpayable",
            "type": "function"
        },
        {
            "inputs": [
                {
                    "internalType": "bool",
                    "name": "_picking_up_in_person",
                    "type": "bool"
                },
                {
                    "internalType": "string",
                    "name": "_shipping_address",
                    "type": "string"
                }
            ],
            "name": "createBigOrder",
            "outputs": [],
            "stateMutability": "nonpayable",
            "type": "function"
        },
        {
            "inputs": [
                {
                    "internalType": "uint256",
                    "name": "_item_id",
                    "type": "uint256"
                },
                {
                    "internalType": "enum Marketplace.Size[]",
                    "name": "_item_sizes_ordered",
                    "type": "uint8[]"
                },
                {
                    "internalType": "uint256[]",
                    "name": "_item_quantities_ordered",
                    "type": "uint256[]"
                }
            ],
            "name": "createItemOrder",
            "outputs": [],
            "stateMutability": "nonpayable",
            "type": "function"
        },
        {
            "inputs": [
                {
                    "internalType": "uint256",
                    "name": "_itemOrderId",
                    "type": "uint256"
                }
            ],
            "name": "itemOrderIdToItemOrder",
            "outputs": [
                {
                    "components": [
                        {
                            "internalType": "uint256",
                            "name": "item_id",
                            "type": "uint256"
                        },
                        {
                            "internalType": "address",
                            "name": "student_chain_address",
                            "type": "address"
                        },
                        {
                            "internalType": "enum Marketplace.Size[]",
                            "name": "item_sizes_ordered",
                            "type": "uint8[]"
                        },
                        {
                            "internalType": "uint256[]",
                            "name": "item_quantities_ordered",
                            "type": "uint256[]"
                        },
                        {
                            "internalType": "uint256",
                            "name": "item_tokens_paid",
                            "type": "uint256"
                        }
                    ],
                    "internalType": "struct Marketplace.itemOrder",
                    "name": "",
                    "type": "tuple"
                }
            ],
            "stateMutability": "view",
            "type": "function"
        },
        {
            "inputs": [
                {
                    "internalType": "string",
                    "name": "_studentIdAndBlocktime",
                    "type": "string"
                }
            ],
            "name": "studentIdAndBlocktimeToBigOrder",
            "outputs": [
                {
                    "components": [
                        {
                            "internalType": "uint256",
                            "name": "tokens_paid",
                            "type": "uint256"
                        },
                        {
                            "internalType": "address",
                            "name": "student_chain_address",
                            "type": "address"
                        },
                        {
                            "internalType": "uint256[]",
                            "name": "itemOrderIds",
                            "type": "uint256[]"
                        },
                        {
                            "internalType": "bool",
                            "name": "picking_up_in_person",
                            "type": "bool"
                        },
                        {
                            "internalType": "string",
                            "name": "shipping_address",
                            "type": "string"
                        },
                        {
                            "internalType": "uint256",
                            "name": "time_ordered",
                            "type": "uint256"
                        },
                        {
                            "internalType": "enum Marketplace.Statuses",
                            "name": "current_status",
                            "type": "uint8"
                        }
                    ],
                    "internalType": "struct Marketplace.bigOrder",
                    "name": "",
                    "type": "tuple"
                }
            ],
            "stateMutability": "view",
            "type": "function"
        },
        {
            "inputs": [
                {
                    "internalType": "string",
                    "name": "_studentId",
                    "type": "string"
                }
            ],
            "name": "studentIdToBlocktimes",
            "outputs": [
                {
                    "internalType": "uint256[]",
                    "name": "",
                    "type": "uint256[]"
                }
            ],
            "stateMutability": "view",
            "type": "function"
        },
        {
            "inputs": [
                {
                    "internalType": "uint256",
                    "name": "v",
                    "type": "uint256"
                }
            ],
            "name": "uintToString",
            "outputs": [
                {
                    "internalType": "string",
                    "name": "",
                    "type": "string"
                }
            ],
            "stateMutability": "pure",
            "type": "function"
        }
    ],
    "bytecode": "60806040526000600855600060095534801561001a57600080fd5b506113578061002a6000396000f3fe608060405234801561001057600080fd5b506004361061007d5760003560e01c8063aff96ed81161005b578063aff96ed8146100e0578063d2b11b1f14610100578063db599a0514610123578063e93956791461013657600080fd5b806302b4dfce1461008257806308cd3725146100ab5780639bbb13d3146100c0575b600080fd5b610095610090366004610ef7565b610156565b6040516100a2919061110d565b60405180910390f35b6100be6100b9366004610dbc565b6102ae565b005b6100d36100ce366004610e85565b610579565b6040516100a29190611079565b6100f36100ee366004610e85565b6106fa565b6040516100a2919061104c565b61011361010e366004610d84565b61076d565b60405190151581526020016100a2565b6100be610131366004610f10565b61078d565b610149610144366004610ef7565b6109d8565b6040516100a29190611066565b6101916040518060a001604052806000815260200160006001600160a01b031681526020016060815260200160608152602001600081525090565b600082815260056020908152604091829020825160a0810184528154815260018201546001600160a01b0316818401526002820180548551818602810186018752818152929593949386019383018282801561023c57602002820191906000526020600020906000905b82829054906101000a900460ff16600781111561021a5761021a6112df565b8152602060019283018181049485019490930390920291018084116101fb5790505b505050505081526020016003820180548060200260200160405190810160405280929190818152602001828054801561029457602002820191906000526020600020905b815481526020019060010190808311610280575b505050505081526020016004820154815250509050919050565b60604260006102c5836102c0846109d8565b610b36565b905060006001600160a01b03166004826040516102e29190611001565b908152604051908190036020019020600101546001600160a01b03161461030857600080fd5b6040805160e08101825232600081815260066020908152848220548452808401839052918152600782528390208054845181840281018401865281815293948501939283018282801561037a57602002820191906000526020600020905b815481526020019060010190808311610366575b50505091835250508615156020820152604081018690526060810184905260800160008152506004826040516103b09190611001565b908152604080516020928190038301902083518155838301516001820180546001600160a01b0319166001600160a01b03909216919091179055908301518051919261040492600285019290910190610b62565b50606082015160038201805460ff191691151591909117905560808201518051610438916004840191602090910190610bad565b5060a0820151600582015560c082015160068201805460ff19166001836003811115610466576104666112df565b021790555050600980549150600061047d83611284565b90915550503260009081526006602052604080822082905580516001808252818301909252908160200160208202803683370190505032600090815260076020908152604090912082519293506104d8929091840190610b62565b506003846040516104e99190611001565b9081526040519081900360200190205461053c5760405180602001604052808481525060038560405161051c9190611001565b908152604051908190036020019020610536916001610b62565b50610571565b60038460405161054c9190611001565b9081526040516020918190038201902080546001810182556000918252919020018390555b505050505050565b610581610c20565b60048383604051610593929190610ff1565b90815260408051918290036020908101832060e0840183528054845260018101546001600160a01b0316848301526002810180548451818502810185018652818152929486019383018282801561060957602002820191906000526020600020905b8154815260200190600101908083116105f5575b5050509183525050600382015460ff161515602082015260048201805460409092019161063590611249565b80601f016020809104026020016040519081016040528092919081815260200182805461066190611249565b80156106ae5780601f10610683576101008083540402835291602001916106ae565b820191906000526020600020905b81548152906001019060200180831161069157829003601f168201915b505050918352505060058201546020820152600682015460409091019060ff1660038111156106df576106df6112df565b60038111156106f0576106f06112df565b9052509392505050565b60606003838360405161070e929190610ff1565b908152604080519182900360209081018320805480830285018301909352828452919083018282801561076057602002820191906000526020600020905b81548152602001906001019080831161074c575b5050505050905092915050565b6000326001600160a01b0384161461078457600080fd5b50600192915050565b6000805b828110156107ec576000878152600260205260409020600101548484838181106107bd576107bd6112f5565b905060200201356107ce91906111e3565b6107d890836111b7565b9150806107e481611284565b915050610791565b5032600081815260066020526040812054909161080e9161010e9085906111b7565b61081757600080fd5b32600090815260066020526040812080548492906108369084906111b7565b925050819055506040518060a00160405280888152602001326001600160a01b0316815260200187878080602002602001604051908101604052809392919081815260200183836020028082843760009201919091525050509082525060408051602087810282810182019093528782529283019290918891889182918501908490808284376000920182905250938552505050602091820185905260095481526005825260409081902083518155838301516001820180546001600160a01b0319166001600160a01b03909216919091179055908301518051919261092492600285019290910190610c78565b5060608201518051610940916003840191602090910190610b62565b506080919091015160049091015532600090815260076020526040902054610992576040805160208082018352600954825232600090815260079091529190912061098c916001610b62565b506109ba565b3260009081526007602090815260408220600954815460018101835591845291909220909101555b600980549060006109ca83611284565b919050555050505050505050565b60408051606480825260a08201909252606091906000908260208201818036833701905050905060005b8415610a6c576000610a15600a8761129f565b9050610a22600a876111cf565b9550610a2f8160306111b7565b60f81b8383610a3d81611284565b945081518110610a4f57610a4f6112f5565b60200101906001600160f81b031916908160001a90535050610a02565b60008167ffffffffffffffff811115610a8757610a8761130b565b6040519080825280601f01601f191660200182016040528015610ab1576020820181803683370190505b50905060005b82811015610b2c57836001610acc8386611202565b610ad69190611202565b81518110610ae657610ae66112f5565b602001015160f81c60f81b828281518110610b0357610b036112f5565b60200101906001600160f81b031916908160001a90535080610b2481611284565b915050610ab7565b5095945050505050565b60608282604051602001610b4b92919061101d565b604051602081830303815290604052905092915050565b828054828255906000526020600020908101928215610b9d579160200282015b82811115610b9d578251825591602001919060010190610b82565b50610ba9929150610d23565b5090565b828054610bb990611249565b90600052602060002090601f016020900481019282610bdb5760008555610b9d565b82601f10610bf457805160ff1916838001178555610b9d565b82800160010185558215610b9d5791820182811115610b9d578251825591602001919060010190610b82565b6040518060e001604052806000815260200160006001600160a01b0316815260200160608152602001600015158152602001606081526020016000815260200160006003811115610c7357610c736112df565b905290565b82805482825590600052602060002090601f01602090048101928215610b9d5791602002820160005b83821115610ced57835183826101000a81548160ff02191690836007811115610ccc57610ccc6112df565b02179055509260200192600101602081600001049283019260010302610ca1565b8015610d1a5782816101000a81549060ff0219169055600101602081600001049283019260010302610ced565b5050610ba99291505b5b80821115610ba95760008155600101610d24565b60008083601f840112610d4a57600080fd5b50813567ffffffffffffffff811115610d6257600080fd5b6020830191508360208260051b8501011115610d7d57600080fd5b9250929050565b60008060408385031215610d9757600080fd5b82356001600160a01b0381168114610dae57600080fd5b946020939093013593505050565b60008060408385031215610dcf57600080fd5b82358015158114610ddf57600080fd5b9150602083013567ffffffffffffffff80821115610dfc57600080fd5b818501915085601f830112610e1057600080fd5b813581811115610e2257610e2261130b565b604051601f8201601f19908116603f01168101908382118183101715610e4a57610e4a61130b565b81604052828152886020848701011115610e6357600080fd5b8260208601602083013760006020848301015280955050505050509250929050565b60008060208385031215610e9857600080fd5b823567ffffffffffffffff80821115610eb057600080fd5b818501915085601f830112610ec457600080fd5b813581811115610ed357600080fd5b866020828501011115610ee557600080fd5b60209290920196919550909350505050565b600060208284031215610f0957600080fd5b5035919050565b600080600080600060608688031215610f2857600080fd5b85359450602086013567ffffffffffffffff80821115610f4757600080fd5b610f5389838a01610d38565b90965094506040880135915080821115610f6c57600080fd5b50610f7988828901610d38565b969995985093965092949392505050565b600081518084526020808501945080840160005b83811015610fba57815187529582019590820190600101610f9e565b509495945050505050565b60008151808452610fdd816020860160208601611219565b601f01601f19169290920160200192915050565b8183823760009101908152919050565b60008251611013818460208701611219565b9190910192915050565b6000835161102f818460208801611219565b835190830190611043818360208801611219565b01949350505050565b60208152600061105f6020830184610f8a565b9392505050565b60208152600061105f6020830184610fc5565b602081528151602082015260018060a01b0360208301511660408201526000604083015160e060608401526110b2610100840182610f8a565b90506060840151151560808401526080840151601f198483030160a08501526110db8282610fc5565b91505060a084015160c084015260c0840151600481106110fd576110fd6112df565b60e0939093019290925250919050565b6020808252825182820152828101516001600160a01b031660408084019190915283015160a06060840152805160c0840181905260009291820190839060e08601905b808310156111805783516008811061116a5761116a6112df565b8252928401926001929092019190840190611150565b506060870151868203601f19016080880152935061119e8185610f8a565b9350505050608084015160a08401528091505092915050565b600082198211156111ca576111ca6112b3565b500190565b6000826111de576111de6112c9565b500490565b60008160001904831182151516156111fd576111fd6112b3565b500290565b600082821015611214576112146112b3565b500390565b60005b8381101561123457818101518382015260200161121c565b83811115611243576000848401525b50505050565b600181811c9082168061125d57607f821691505b6020821081141561127e57634e487b7160e01b600052602260045260246000fd5b50919050565b6000600019821415611298576112986112b3565b5060010190565b6000826112ae576112ae6112c9565b500690565b634e487b7160e01b600052601160045260246000fd5b634e487b7160e01b600052601260045260246000fd5b634e487b7160e01b600052602160045260246000fd5b634e487b7160e01b600052603260045260246000fd5b634e487b7160e01b600052604160045260246000fdfea2646970667358221220b3145cfed53b192255042777f35ae8c1a745ead0d5fff4df1239e4181578caf164736f6c63430008050033",
    "sourcePath": "c:/Users/14082/Documents/iBlock/Code/iBlock/AllContracts.sol",
    "compiler": {
        "name": "solc",
        "version": "0.8.5+commit.a4f2e591"
    },
    "functionHashes": {
        "canAfford(address,uint256)": "d2b11b1f",
        "createBigOrder(bool,string)": "08cd3725",
        "createItemOrder(uint256,uint8[],uint256[])": "db599a05",
        "itemOrderIdToItemOrder(uint256)": "02b4dfce",
        "studentIdAndBlocktimeToBigOrder(string)": "9bbb13d3",
        "studentIdToBlocktimes(string)": "aff96ed8",
        "uintToString(uint256)": "e9395679"
    },
    "gasEstimates": {
        "creation": {
            "codeDepositCost": "990200",
            "executionCost": "11039",
            "totalCost": "1001239"
        },
        "external": {
            "canAfford(address,uint256)": "431",
            "createBigOrder(bool,string)": "infinite",
            "createItemOrder(uint256,uint8[],uint256[])": "infinite",
            "itemOrderIdToItemOrder(uint256)": "infinite",
            "studentIdAndBlocktimeToBigOrder(string)": "infinite",
            "studentIdToBlocktimes(string)": "infinite",
            "uintToString(uint256)": "infinite"
        },
        "internal": {
            "append(string memory,string memory)": "infinite",
            "isAdmin(address)": "infinite",
            "isBlacklisted(address)": "infinite"
        }
    }
}