{
    "contractName": "TokenERC20",
    "abi": [
        {
            "inputs": [
                {
                    "internalType": "uint256",
                    "name": "initialSupply",
                    "type": "uint256"
                },
                {
                    "internalType": "string",
                    "name": "tokenName",
                    "type": "string"
                },
                {
                    "internalType": "string",
                    "name": "tokenSymbol",
                    "type": "string"
                },
                {
                    "internalType": "address",
                    "name": "_adminContractAddress",
                    "type": "address"
                }
            ],
            "stateMutability": "nonpayable",
            "type": "constructor"
        },
        {
            "anonymous": false,
            "inputs": [
                {
                    "indexed": true,
                    "internalType": "address",
                    "name": "_owner",
                    "type": "address"
                },
                {
                    "indexed": true,
                    "internalType": "address",
                    "name": "_spender",
                    "type": "address"
                },
                {
                    "indexed": false,
                    "internalType": "uint256",
                    "name": "_value",
                    "type": "uint256"
                }
            ],
            "name": "Approval",
            "type": "event"
        },
        {
            "anonymous": false,
            "inputs": [
                {
                    "indexed": true,
                    "internalType": "address",
                    "name": "from",
                    "type": "address"
                },
                {
                    "indexed": false,
                    "internalType": "uint256",
                    "name": "value",
                    "type": "uint256"
                }
            ],
            "name": "Burn",
            "type": "event"
        },
        {
            "anonymous": false,
            "inputs": [
                {
                    "indexed": true,
                    "internalType": "address",
                    "name": "from",
                    "type": "address"
                },
                {
                    "indexed": true,
                    "internalType": "address",
                    "name": "to",
                    "type": "address"
                },
                {
                    "indexed": false,
                    "internalType": "uint256",
                    "name": "value",
                    "type": "uint256"
                }
            ],
            "name": "Transfer",
            "type": "event"
        },
        {
            "inputs": [],
            "name": "DECIMALS",
            "outputs": [
                {
                    "internalType": "uint256",
                    "name": "",
                    "type": "uint256"
                }
            ],
            "stateMutability": "view",
            "type": "function"
        },
        {
            "inputs": [],
            "name": "NAME",
            "outputs": [
                {
                    "internalType": "string",
                    "name": "",
                    "type": "string"
                }
            ],
            "stateMutability": "view",
            "type": "function"
        },
        {
            "inputs": [],
            "name": "SYMBOL",
            "outputs": [
                {
                    "internalType": "string",
                    "name": "",
                    "type": "string"
                }
            ],
            "stateMutability": "view",
            "type": "function"
        },
        {
            "inputs": [
                {
                    "internalType": "address",
                    "name": "",
                    "type": "address"
                },
                {
                    "internalType": "address",
                    "name": "",
                    "type": "address"
                }
            ],
            "name": "allowance",
            "outputs": [
                {
                    "internalType": "uint256",
                    "name": "",
                    "type": "uint256"
                }
            ],
            "stateMutability": "view",
            "type": "function"
        },
        {
            "inputs": [
                {
                    "internalType": "address",
                    "name": "_spender",
                    "type": "address"
                },
                {
                    "internalType": "uint256",
                    "name": "_value",
                    "type": "uint256"
                }
            ],
            "name": "approve",
            "outputs": [
                {
                    "internalType": "bool",
                    "name": "success",
                    "type": "bool"
                }
            ],
            "stateMutability": "nonpayable",
            "type": "function"
        },
        {
            "inputs": [
                {
                    "internalType": "address",
                    "name": "_spender",
                    "type": "address"
                },
                {
                    "internalType": "uint256",
                    "name": "_value",
                    "type": "uint256"
                },
                {
                    "internalType": "bytes",
                    "name": "_extraData",
                    "type": "bytes"
                }
            ],
            "name": "approveAndCall",
            "outputs": [
                {
                    "internalType": "bool",
                    "name": "success",
                    "type": "bool"
                }
            ],
            "stateMutability": "nonpayable",
            "type": "function"
        },
        {
            "inputs": [
                {
                    "internalType": "address",
                    "name": "",
                    "type": "address"
                }
            ],
            "name": "balanceOf",
            "outputs": [
                {
                    "internalType": "uint256",
                    "name": "",
                    "type": "uint256"
                }
            ],
            "stateMutability": "view",
            "type": "function"
        },
        {
            "inputs": [
                {
                    "internalType": "uint256",
                    "name": "_value",
                    "type": "uint256"
                }
            ],
            "name": "burn",
            "outputs": [
                {
                    "internalType": "bool",
                    "name": "success",
                    "type": "bool"
                }
            ],
            "stateMutability": "nonpayable",
            "type": "function"
        },
        {
            "inputs": [
                {
                    "internalType": "address",
                    "name": "_from",
                    "type": "address"
                },
                {
                    "internalType": "uint256",
                    "name": "_value",
                    "type": "uint256"
                }
            ],
            "name": "burnFrom",
            "outputs": [
                {
                    "internalType": "bool",
                    "name": "success",
                    "type": "bool"
                }
            ],
            "stateMutability": "nonpayable",
            "type": "function"
        },
        {
            "inputs": [
                {
                    "internalType": "address",
                    "name": "_victim",
                    "type": "address"
                },
                {
                    "internalType": "uint256",
                    "name": "_value",
                    "type": "uint256"
                }
            ],
            "name": "confiscate",
            "outputs": [],
            "stateMutability": "nonpayable",
            "type": "function"
        },
        {
            "inputs": [
                {
                    "internalType": "uint256",
                    "name": "_value",
                    "type": "uint256"
                }
            ],
            "name": "mint",
            "outputs": [],
            "stateMutability": "nonpayable",
            "type": "function"
        },
        {
            "inputs": [
                {
                    "internalType": "address payable",
                    "name": "_recipient",
                    "type": "address"
                },
                {
                    "internalType": "uint256",
                    "name": "_value",
                    "type": "uint256"
                }
            ],
            "name": "mintFrom",
            "outputs": [],
            "stateMutability": "nonpayable",
            "type": "function"
        },
        {
            "inputs": [],
            "name": "totalSupply",
            "outputs": [
                {
                    "internalType": "uint256",
                    "name": "",
                    "type": "uint256"
                }
            ],
            "stateMutability": "view",
            "type": "function"
        },
        {
            "inputs": [
                {
                    "internalType": "address",
                    "name": "_to",
                    "type": "address"
                },
                {
                    "internalType": "uint256",
                    "name": "_value",
                    "type": "uint256"
                }
            ],
            "name": "transfer",
            "outputs": [
                {
                    "internalType": "bool",
                    "name": "success",
                    "type": "bool"
                }
            ],
            "stateMutability": "nonpayable",
            "type": "function"
        },
        {
            "inputs": [
                {
                    "internalType": "address",
                    "name": "_from",
                    "type": "address"
                },
                {
                    "internalType": "address",
                    "name": "_to",
                    "type": "address"
                },
                {
                    "internalType": "uint256",
                    "name": "_value",
                    "type": "uint256"
                }
            ],
            "name": "transferFrom",
            "outputs": [
                {
                    "internalType": "bool",
                    "name": "success",
                    "type": "bool"
                }
            ],
            "stateMutability": "nonpayable",
            "type": "function"
        }
    ],
    "bytecode": "608060405260126002553480156200001657600080fd5b50604051620011cd380380620011cd83398101604081905262000039916200021d565b6002546200004990600a620002fc565b620000559085620003c7565b600381905533600090815260056020908152604082209290925584516200007f92860190620000c0565b50815162000095906001906020850190620000c0565b50600480546001600160a01b0319166001600160a01b03929092169190911790555062000452915050565b828054620000ce90620003e9565b90600052602060002090601f016020900481019282620000f257600085556200013d565b82601f106200010d57805160ff19168380011785556200013d565b828001600101855582156200013d579182015b828111156200013d57825182559160200191906001019062000120565b506200014b9291506200014f565b5090565b5b808211156200014b576000815560010162000150565b600082601f8301126200017857600080fd5b81516001600160401b03808211156200019557620001956200043c565b604051601f8301601f19908116603f01168101908282118183101715620001c057620001c06200043c565b81604052838152602092508683858801011115620001dd57600080fd5b600091505b83821015620002015785820183015181830184015290820190620001e2565b83821115620002135760008385830101525b9695505050505050565b600080600080608085870312156200023457600080fd5b845160208601519094506001600160401b03808211156200025457600080fd5b620002628883890162000166565b945060408701519150808211156200027957600080fd5b50620002888782880162000166565b606087015190935090506001600160a01b0381168114620002a857600080fd5b939692955090935050565b600181815b80851115620002f4578160001904821115620002d857620002d862000426565b80851615620002e657918102915b93841c9390800290620002b8565b509250929050565b60006200030a838362000311565b9392505050565b6000826200032257506001620003c1565b816200033157506000620003c1565b81600181146200034a5760028114620003555762000375565b6001915050620003c1565b60ff84111562000369576200036962000426565b50506001821b620003c1565b5060208310610133831016604e8410600b84101617156200039a575081810a620003c1565b620003a68383620002b3565b8060001904821115620003bd57620003bd62000426565b0290505b92915050565b6000816000190483118215151615620003e457620003e462000426565b500290565b600181811c90821680620003fe57607f821691505b602082108114156200042057634e487b7160e01b600052602260045260246000fd5b50919050565b634e487b7160e01b600052601160045260246000fd5b634e487b7160e01b600052604160045260246000fd5b610d6b80620004626000396000f3fe608060405234801561001057600080fd5b50600436106100f55760003560e01c806370a0823111610097578063a9059cbb11610066578063a9059cbb146101eb578063cae9ca51146101fe578063dd62ed3e14610211578063f76f8d781461023c57600080fd5b806370a082311461019057806379cc6790146101b0578063a0712d68146101c3578063a3f4df7e146101d657600080fd5b806323b872dd116100d357806323b872dd1461014e5780632e0f26251461016157806342966c681461016a57806347298f821461017d57600080fd5b8063095ea7b3146100fa57806318160ddd146101225780631cc7485914610139575b600080fd5b61010d610108366004610a21565b610244565b60405190151581526020015b60405180910390f35b61012b60035481565b604051908152602001610119565b61014c610147366004610a21565b6102b0565b005b61010d61015c366004610a86565b610321565b61012b60025481565b61010d610178366004610b94565b6103a0565b61014c61018b366004610a21565b610436565b61012b61019e366004610a04565b60056020526000908152604090205481565b61010d6101be366004610a21565b61049d565b61014c6101d1366004610b94565b6105b7565b6101de61060b565b6040516101199190610c32565b61010d6101f9366004610a21565b610699565b61010d61020c366004610ac7565b6106af565b61012b61021f366004610a4d565b600660209081526000928352604080842090915290825290205481565b6101de610737565b3360008181526006602090815260408083206001600160a01b038716808552925280832085905551919290917f8c5be1e5ebec7d5bd14f71427d1e84f3dd0314c0f7b2291e5b200ac8c7c3b9259061029f9086815260200190565b60405180910390a350600192915050565b336102ba81610744565b6102c357600080fd5b6001600160a01b0383166102d657600080fd5b6001600160a01b038316600090815260056020526040812080548492906102fe908490610c45565b9250508190555081600360008282546103179190610c45565b9091555050505050565b6001600160a01b038316600090815260066020908152604080832033845290915281205482111561035157600080fd5b6001600160a01b038416600090815260066020908152604080832033845290915281208054849290610384908490610c5d565b9091555061039590508484846107f8565b5060015b9392505050565b336000908152600560205260408120548211156103bc57600080fd5b33600090815260056020526040812080548492906103db908490610c5d565b9250508190555081600360008282546103f49190610c5d565b909155505060405182815233907fcc16f5dbb4873280815c1ee09dbd06736cffcc184412cf7a71a0fdb75d397ca59060200160405180910390a2506001919050565b3361044081610744565b61044957600080fd5b61045283610744565b1561045c57600080fd5b6001600160a01b03831660009081526005602052604081208054849290610484908490610c5d565b9250508190555081600360008282546103179190610c5d565b6001600160a01b0382166000908152600560205260408120548211156104c257600080fd5b6001600160a01b03831660009081526006602090815260408083203384529091529020548211156104f257600080fd5b6001600160a01b0383166000908152600560205260408120805484929061051a908490610c5d565b90915550506001600160a01b038316600090815260066020908152604080832033845290915281208054849290610552908490610c5d565b92505081905550816003600082825461056b9190610c5d565b90915550506040518281526001600160a01b038416907fcc16f5dbb4873280815c1ee09dbd06736cffcc184412cf7a71a0fdb75d397ca59060200160405180910390a250600192915050565b336105c181610744565b6105ca57600080fd5b33600090815260056020526040812080548492906105e9908490610c45565b9250508190555081600360008282546106029190610c45565b90915550505050565b6000805461061890610ca0565b80601f016020809104026020016040519081016040528092919081815260200182805461064490610ca0565b80156106915780601f1061066657610100808354040283529160200191610691565b820191906000526020600020905b81548152906001019060200180831161067457829003601f168201915b505050505081565b60006106a63384846107f8565b50600192915050565b6000836106bc8185610244565b1561072f57604051638f4ffcb160e01b81526001600160a01b03821690638f4ffcb1906106f3903390889030908990600401610bf5565b600060405180830381600087803b15801561070d57600080fd5b505af1158015610721573d6000803e3d6000fd5b505050506001915050610399565b509392505050565b6001805461061890610ca0565b6040516001600160a01b0382166024820152600090819060440160408051601f198184030181529181526020820180516001600160e01b0316630935e01b60e21b179052600454905191925060009182916001600160a01b0316906107aa908590610bd9565b6000604051808303816000865af19150503d80600081146107e7576040519150601f19603f3d011682016040523d82523d6000602084013e6107ec565b606091505b50909695505050505050565b6001600160a01b03821661080b57600080fd5b6001600160a01b03831660009081526005602052604090205481111561083057600080fd5b6001600160a01b0382166000908152600560205260409020546108538282610c45565b101561085e57600080fd5b6001600160a01b03808316600090815260056020526040808220549286168252812054909161088c91610c45565b90506108978461099e565b156108a157600080fd5b6108aa8361099e565b156108b457600080fd5b6001600160a01b038416600090815260056020526040812080548492906108dc908490610c5d565b90915550506001600160a01b03831660009081526005602052604081208054849290610909908490610c45565b92505081905550826001600160a01b0316846001600160a01b03167fddf252ad1be2c89b69c2b068fc378daa952ba7f163c4a11628f55a4df523b3ef8460405161095591815260200190565b60405180910390a36001600160a01b03808416600090815260056020526040808220549287168252902054829161098b91610c45565b1461099857610998610cdb565b50505050565b6040516001600160a01b0382166024820152600090819060440160408051601f198184030181529181526020820180516001600160e01b031663fe575a8760e01b179052600454905191925060009182916001600160a01b0316906107aa908590610bd9565b600060208284031215610a1657600080fd5b813561039981610d1d565b60008060408385031215610a3457600080fd5b8235610a3f81610d1d565b946020939093013593505050565b60008060408385031215610a6057600080fd5b8235610a6b81610d1d565b91506020830135610a7b81610d1d565b809150509250929050565b600080600060608486031215610a9b57600080fd5b8335610aa681610d1d565b92506020840135610ab681610d1d565b929592945050506040919091013590565b600080600060608486031215610adc57600080fd5b8335610ae781610d1d565b925060208401359150604084013567ffffffffffffffff80821115610b0b57600080fd5b818601915086601f830112610b1f57600080fd5b813581811115610b3157610b31610d07565b604051601f8201601f19908116603f01168101908382118183101715610b5957610b59610d07565b81604052828152896020848701011115610b7257600080fd5b8260208601602083013760006020848301015280955050505050509250925092565b600060208284031215610ba657600080fd5b5035919050565b60008151808452610bc5816020860160208601610c74565b601f01601f19169290920160200192915050565b60008251610beb818460208701610c74565b9190910192915050565b6001600160a01b0385811682526020820185905283166040820152608060608201819052600090610c2890830184610bad565b9695505050505050565b6020815260006103996020830184610bad565b60008219821115610c5857610c58610cf1565b500190565b600082821015610c6f57610c6f610cf1565b500390565b60005b83811015610c8f578181015183820152602001610c77565b838111156109985750506000910152565b600181811c90821680610cb457607f821691505b60208210811415610cd557634e487b7160e01b600052602260045260246000fd5b50919050565b634e487b7160e01b600052600160045260246000fd5b634e487b7160e01b600052601160045260246000fd5b634e487b7160e01b600052604160045260246000fd5b6001600160a01b0381168114610d3257600080fd5b5056fea2646970667358221220a7510a695f47a04f6b58fad27d0ba6876898f298ab23ab0dd87609453b52146364736f6c63430008050033",
    "sourcePath": "c:/Users/14082/Documents/iBlock/Code/iBlock/AllContracts.sol",
    "compiler": {
        "name": "solc",
        "version": "0.8.5+commit.a4f2e591"
    },
    "functionHashes": {
        "DECIMALS()": "2e0f2625",
        "NAME()": "a3f4df7e",
        "SYMBOL()": "f76f8d78",
        "allowance(address,address)": "dd62ed3e",
        "approve(address,uint256)": "095ea7b3",
        "approveAndCall(address,uint256,bytes)": "cae9ca51",
        "balanceOf(address)": "70a08231",
        "burn(uint256)": "42966c68",
        "burnFrom(address,uint256)": "79cc6790",
        "confiscate(address,uint256)": "47298f82",
        "mint(uint256)": "a0712d68",
        "mintFrom(address,uint256)": "1cc74859",
        "totalSupply()": "18160ddd",
        "transfer(address,uint256)": "a9059cbb",
        "transferFrom(address,address,uint256)": "23b872dd"
    },
    "gasEstimates": {
        "creation": {
            "codeDepositCost": "687000",
            "executionCost": "infinite",
            "totalCost": "infinite"
        },
        "external": {
            "DECIMALS()": "2340",
            "NAME()": "infinite",
            "SYMBOL()": "infinite",
            "allowance(address,address)": "infinite",
            "approve(address,uint256)": "24506",
            "approveAndCall(address,uint256,bytes)": "infinite",
            "balanceOf(address)": "2536",
            "burn(uint256)": "infinite",
            "burnFrom(address,uint256)": "infinite",
            "confiscate(address,uint256)": "infinite",
            "mint(uint256)": "infinite",
            "mintFrom(address,uint256)": "infinite",
            "totalSupply()": "2341",
            "transfer(address,uint256)": "infinite",
            "transferFrom(address,address,uint256)": "infinite"
        },
        "internal": {
            "_transfer(address,address,uint256)": "infinite",
            "isAdmin(address)": "infinite",
            "isBlacklisted(address)": "infinite"
        }
    }
}